{
  "_format": "hh-sol-artifact-1",
  "contractName": "CircleContract",
  "sourceName": "contracts/Circle.sol",
  "abi": [
    {
      "inputs": [],
      "stateMutability": "nonpayable",
      "type": "constructor"
    },
    {
      "anonymous": false,
      "inputs": [
        {
          "indexed": false,
          "internalType": "string",
          "name": "circleId",
          "type": "string"
        },
        {
          "indexed": false,
          "internalType": "string",
          "name": "applicantDID",
          "type": "string"
        }
      ],
      "name": "ApplicationApproved",
      "type": "event"
    },
    {
      "anonymous": false,
      "inputs": [
        {
          "indexed": false,
          "internalType": "string",
          "name": "circleId",
          "type": "string"
        },
        {
          "indexed": false,
          "internalType": "string",
          "name": "applicantDID",
          "type": "string"
        }
      ],
      "name": "ApplicationRejected",
      "type": "event"
    },
    {
      "anonymous": false,
      "inputs": [
        {
          "indexed": false,
          "internalType": "string",
          "name": "circleId",
          "type": "string"
        },
        {
          "indexed": false,
          "internalType": "string",
          "name": "applicantDID",
          "type": "string"
        }
      ],
      "name": "ApplicationSubmitted",
      "type": "event"
    },
    {
      "anonymous": false,
      "inputs": [
        {
          "indexed": false,
          "internalType": "string",
          "name": "circleId",
          "type": "string"
        },
        {
          "indexed": false,
          "internalType": "string",
          "name": "ownerDID",
          "type": "string"
        },
        {
          "indexed": false,
          "internalType": "string",
          "name": "ownerOrgName",
          "type": "string"
        }
      ],
      "name": "CircleCreated",
      "type": "event"
    },
    {
      "anonymous": false,
      "inputs": [
        {
          "indexed": false,
          "internalType": "string",
          "name": "circleId",
          "type": "string"
        },
        {
          "indexed": false,
          "internalType": "string",
          "name": "memberDID",
          "type": "string"
        }
      ],
      "name": "MemberLeft",
      "type": "event"
    },
    {
      "anonymous": false,
      "inputs": [
        {
          "indexed": false,
          "internalType": "string",
          "name": "circleId",
          "type": "string"
        },
        {
          "indexed": false,
          "internalType": "string",
          "name": "newOwnerDID",
          "type": "string"
        }
      ],
      "name": "OwnershipTransferred",
      "type": "event"
    },
    {
      "anonymous": false,
      "inputs": [
        {
          "indexed": false,
          "internalType": "uint256",
          "name": "productId",
          "type": "uint256"
        }
      ],
      "name": "ProductApproved",
      "type": "event"
    },
    {
      "anonymous": false,
      "inputs": [
        {
          "indexed": false,
          "internalType": "uint256",
          "name": "productId",
          "type": "uint256"
        },
        {
          "indexed": false,
          "internalType": "string",
          "name": "circleId",
          "type": "string"
        },
        {
          "indexed": false,
          "internalType": "string",
          "name": "ownerDID",
          "type": "string"
        }
      ],
      "name": "ProductCreated",
      "type": "event"
    },
    {
      "anonymous": false,
      "inputs": [
        {
          "indexed": false,
          "internalType": "uint256",
          "name": "productId",
          "type": "uint256"
        }
      ],
      "name": "ProductEdited",
      "type": "event"
    },
    {
      "anonymous": false,
      "inputs": [
        {
          "indexed": false,
          "internalType": "uint256",
          "name": "productId",
          "type": "uint256"
        },
        {
          "indexed": false,
          "internalType": "bool",
          "name": "onShelf",
          "type": "bool"
        }
      ],
      "name": "ProductShelfStatusChanged",
      "type": "event"
    },
    {
      "inputs": [],
      "name": "admin",
      "outputs": [
        {
          "internalType": "address",
          "name": "",
          "type": "address"
        }
      ],
      "stateMutability": "view",
      "type": "function"
    },
    {
      "inputs": [
        {
          "internalType": "string",
          "name": "circleId",
          "type": "string"
        },
        {
          "internalType": "string",
          "name": "applicantDID",
          "type": "string"
        },
        {
          "internalType": "string",
          "name": "orgName",
          "type": "string"
        },
        {
          "internalType": "string",
          "name": "socialCreditCode",
          "type": "string"
        }
      ],
      "name": "applyToJoinCircle",
      "outputs": [],
      "stateMutability": "nonpayable",
      "type": "function"
    },
    {
      "inputs": [
        {
          "internalType": "string",
          "name": "circleId",
          "type": "string"
        },
        {
          "internalType": "string",
          "name": "ownerDID",
          "type": "string"
        },
        {
          "internalType": "string",
          "name": "applicantDID",
          "type": "string"
        }
      ],
      "name": "approveApplication",
      "outputs": [],
      "stateMutability": "nonpayable",
      "type": "function"
    },
    {
      "inputs": [
        {
          "internalType": "string",
          "name": "circleId",
          "type": "string"
        },
        {
          "internalType": "string",
          "name": "ownerDID",
          "type": "string"
        },
        {
          "internalType": "uint256",
          "name": "productId",
          "type": "uint256"
        }
      ],
      "name": "approveProduct",
      "outputs": [],
      "stateMutability": "nonpayable",
      "type": "function"
    },
    {
      "inputs": [
        {
          "internalType": "string",
          "name": "circleId",
          "type": "string"
        },
        {
          "internalType": "string",
          "name": "name",
          "type": "string"
        },
        {
          "internalType": "string",
          "name": "creatorDID",
          "type": "string"
        },
        {
          "internalType": "string",
          "name": "creatorOrgName",
          "type": "string"
        }
      ],
      "name": "createCircle",
      "outputs": [],
      "stateMutability": "nonpayable",
      "type": "function"
    },
    {
      "inputs": [
        {
          "internalType": "string",
          "name": "circleId",
          "type": "string"
        },
        {
          "internalType": "string",
          "name": "memberDID",
          "type": "string"
        },
        {
          "internalType": "string",
          "name": "name",
          "type": "string"
        },
        {
          "internalType": "string",
          "name": "price",
          "type": "string"
        },
        {
          "internalType": "enum CircleStructs.ProductType",
          "name": "productType",
          "type": "uint8"
        },
        {
          "internalType": "string",
          "name": "ipfsHash",
          "type": "string"
        }
      ],
      "name": "createProduct",
      "outputs": [],
      "stateMutability": "nonpayable",
      "type": "function"
    },
    {
      "inputs": [
        {
          "internalType": "uint256",
          "name": "productId",
          "type": "uint256"
        },
        {
          "internalType": "string",
          "name": "memberDID",
          "type": "string"
        },
        {
          "internalType": "string",
          "name": "newName",
          "type": "string"
        },
        {
          "internalType": "string",
          "name": "newPrice",
          "type": "string"
        },
        {
          "internalType": "string",
          "name": "newIpfsHash",
          "type": "string"
        }
      ],
      "name": "editProduct",
      "outputs": [],
      "stateMutability": "nonpayable",
      "type": "function"
    },
    {
      "inputs": [
        {
          "internalType": "string",
          "name": "circleId",
          "type": "string"
        },
        {
          "internalType": "string",
          "name": "memberDID",
          "type": "string"
        }
      ],
      "name": "exitCircle",
      "outputs": [],
      "stateMutability": "nonpayable",
      "type": "function"
    },
    {
      "inputs": [
        {
          "internalType": "uint256",
          "name": "page",
          "type": "uint256"
        },
        {
          "internalType": "uint256",
          "name": "pageSize",
          "type": "uint256"
        }
      ],
      "name": "getAllCircles",
      "outputs": [
        {
          "components": [
            {
              "internalType": "string",
              "name": "id",
              "type": "string"
            },
            {
              "internalType": "string",
              "name": "name",
              "type": "string"
            },
            {
              "internalType": "string",
              "name": "ownerDID",
              "type": "string"
            },
            {
              "internalType": "string",
              "name": "ownerOrgName",
              "type": "string"
            },
            {
              "internalType": "string",
              "name": "creatorDID",
              "type": "string"
            },
            {
              "internalType": "string",
              "name": "creatorOrgName",
              "type": "string"
            },
            {
              "internalType": "uint256",
              "name": "creationTime",
              "type": "uint256"
            }
          ],
          "internalType": "struct CircleStructs.Circle[]",
          "name": "",
          "type": "tuple[]"
        }
      ],
      "stateMutability": "view",
      "type": "function"
    },
    {
      "inputs": [
        {
          "internalType": "uint256",
          "name": "page",
          "type": "uint256"
        },
        {
          "internalType": "uint256",
          "name": "pageSize",
          "type": "uint256"
        }
      ],
      "name": "getAllProducts",
      "outputs": [
        {
          "components": [
            {
              "internalType": "uint256",
              "name": "id",
              "type": "uint256"
            },
            {
              "internalType": "string",
              "name": "name",
              "type": "string"
            },
            {
              "internalType": "string",
              "name": "price",
              "type": "string"
            },
            {
              "internalType": "enum CircleStructs.ProductType",
              "name": "productType",
              "type": "uint8"
            },
            {
              "internalType": "bool",
              "name": "onShelf",
              "type": "bool"
            },
            {
              "internalType": "string",
              "name": "ipfsHash",
              "type": "string"
            },
            {
              "internalType": "enum CircleStructs.AuditStatus",
              "name": "auditStatus",
              "type": "uint8"
            },
            {
              "internalType": "string",
              "name": "ownerDID",
              "type": "string"
            },
            {
              "internalType": "string",
              "name": "circleId",
              "type": "string"
            }
          ],
          "internalType": "struct CircleStructs.Product[]",
          "name": "",
          "type": "tuple[]"
        }
      ],
      "stateMutability": "view",
      "type": "function"
    },
    {
      "inputs": [
        {
          "internalType": "string",
          "name": "circleId",
          "type": "string"
        },
        {
          "internalType": "uint256",
          "name": "page",
          "type": "uint256"
        },
        {
          "internalType": "uint256",
          "name": "pageSize",
          "type": "uint256"
        }
      ],
      "name": "getApplications",
      "outputs": [
        {
          "components": [
            {
              "internalType": "string",
              "name": "applicantDID",
              "type": "string"
            },
            {
              "internalType": "string",
              "name": "orgName",
              "type": "string"
            },
            {
              "internalType": "string",
              "name": "socialCreditCode",
              "type": "string"
            },
            {
              "internalType": "enum CircleStructs.ApplicationStatus",
              "name": "status",
              "type": "uint8"
            }
          ],
          "internalType": "struct CircleStructs.Application[]",
          "name": "",
          "type": "tuple[]"
        }
      ],
      "stateMutability": "view",
      "type": "function"
    },
    {
      "inputs": [
        {
          "internalType": "string",
          "name": "circleId",
          "type": "string"
        },
        {
          "internalType": "uint256",
          "name": "page",
          "type": "uint256"
        },
        {
          "internalType": "uint256",
          "name": "pageSize",
          "type": "uint256"
        }
      ],
      "name": "getCircleMembers",
      "outputs": [
        {
          "components": [
            {
              "internalType": "string",
              "name": "did",
              "type": "string"
            },
            {
              "internalType": "string",
              "name": "orgName",
              "type": "string"
            },
            {
              "internalType": "string",
              "name": "socialCreditCode",
              "type": "string"
            }
          ],
          "internalType": "struct CircleStructs.Member[]",
          "name": "",
          "type": "tuple[]"
        }
      ],
      "stateMutability": "view",
      "type": "function"
    },
    {
      "inputs": [
        {
          "internalType": "string",
          "name": "circleId",
          "type": "string"
        },
        {
          "internalType": "uint256",
          "name": "page",
          "type": "uint256"
        },
        {
          "internalType": "uint256",
          "name": "pageSize",
          "type": "uint256"
        }
      ],
      "name": "getMembersInCircleForAdmin",
      "outputs": [
        {
          "components": [
            {
              "internalType": "string",
              "name": "did",
              "type": "string"
            },
            {
              "internalType": "string",
              "name": "orgName",
              "type": "string"
            },
            {
              "internalType": "string",
              "name": "socialCreditCode",
              "type": "string"
            }
          ],
          "internalType": "struct CircleStructs.Member[]",
          "name": "",
          "type": "tuple[]"
        }
      ],
      "stateMutability": "view",
      "type": "function"
    },
    {
      "inputs": [
        {
          "internalType": "uint256",
          "name": "productId",
          "type": "uint256"
        }
      ],
      "name": "getProductById",
      "outputs": [
        {
          "components": [
            {
              "internalType": "uint256",
              "name": "id",
              "type": "uint256"
            },
            {
              "internalType": "string",
              "name": "name",
              "type": "string"
            },
            {
              "internalType": "string",
              "name": "price",
              "type": "string"
            },
            {
              "internalType": "enum CircleStructs.ProductType",
              "name": "productType",
              "type": "uint8"
            },
            {
              "internalType": "bool",
              "name": "onShelf",
              "type": "bool"
            },
            {
              "internalType": "string",
              "name": "ipfsHash",
              "type": "string"
            },
            {
              "internalType": "enum CircleStructs.AuditStatus",
              "name": "auditStatus",
              "type": "uint8"
            },
            {
              "internalType": "string",
              "name": "ownerDID",
              "type": "string"
            },
            {
              "internalType": "string",
              "name": "circleId",
              "type": "string"
            }
          ],
          "internalType": "struct CircleStructs.Product",
          "name": "",
          "type": "tuple"
        }
      ],
      "stateMutability": "view",
      "type": "function"
    },
    {
      "inputs": [
        {
          "internalType": "string",
          "name": "circleId",
          "type": "string"
        },
        {
          "internalType": "string",
          "name": "ownerDID",
          "type": "string"
        },
        {
          "internalType": "string",
          "name": "applicantDID",
          "type": "string"
        }
      ],
      "name": "rejectApplication",
      "outputs": [],
      "stateMutability": "nonpayable",
      "type": "function"
    },
    {
      "inputs": [
        {
          "internalType": "uint256",
          "name": "productId",
          "type": "uint256"
        },
        {
          "internalType": "string",
          "name": "memberDID",
          "type": "string"
        },
        {
          "internalType": "bool",
          "name": "onShelf",
          "type": "bool"
        }
      ],
      "name": "setProductOnShelf",
      "outputs": [],
      "stateMutability": "nonpayable",
      "type": "function"
    },
    {
      "inputs": [
        {
          "internalType": "string",
          "name": "circleId",
          "type": "string"
        },
        {
          "internalType": "string",
          "name": "currentOwnerDID",
          "type": "string"
        },
        {
          "internalType": "string",
          "name": "newOwnerDID",
          "type": "string"
        },
        {
          "internalType": "string",
          "name": "newOwnerOrgName",
          "type": "string"
        }
      ],
      "name": "transferCircleOwnership",
      "outputs": [],
      "stateMutability": "nonpayable",
      "type": "function"
    }
  ],
  "bytecode": "0x608060405234801561001057600080fd5b50336000806101000a81548173ffffffffffffffffffffffffffffffffffffffff021916908373ffffffffffffffffffffffffffffffffffffffff1602179055506001808190555061564780620000686000396000f3fe608060405234801561001057600080fd5b506004361061010b5760003560e01c8063922406b4116100a2578063b581c48211610071578063b581c482146102b0578063cec55a0f146102e0578063ea51b339146102fc578063f851a44014610318578063fdd5b40c146103365761010b565b8063922406b41461022c578063931744ca1461025c5780639f63e35514610278578063aacbada9146102945761010b565b80635a954c3e116100de5780635a954c3e146101945780635caa6b14146101c45780636bf12efa146101e05780638d0758bd146102105761010b565b806331256368146101105780633d8fdfb71461012c5780633f70c2b4146101485780635756441b14610178575b600080fd5b61012a60048036038101906101259190613e46565b610366565b005b61014660048036038101906101419190613c56565b6105e9565b005b610162600480360381019061015d9190613f40565b6107e2565b60405161016f9190614d13565b60405180910390f35b610192600480360381019061018d9190613b37565b610bdf565b005b6101ae60048036038101906101a99190613ed1565b610ed7565b6040516101bb9190614a48565b60405180910390f35b6101de60048036038101906101d99190613c56565b611361565b005b6101fa60048036038101906101f59190613ed1565b611574565b6040516102079190614a8c565b60405180910390f35b61022a60048036038101906102259190613baf565b6119f8565b005b610246600480360381019061024191906140c7565b611cd1565b6040516102539190614a6a565b60405180910390f35b61027660048036038101906102719190613baf565b6122f1565b005b610292600480360381019061028d9190613c56565b6127e9565b005b6102ae60048036038101906102a99190613fdc565b612b0d565b005b6102ca60048036038101906102c59190613ed1565b612cd1565b6040516102d79190614a8c565b60405180910390f35b6102fa60048036038101906102f59190613d2d565b612d75565b005b61031660048036038101906103119190613f6d565b613099565b005b61032061325c565b60405161032d9190614a2d565b60405180910390f35b610350600480360381019061034b91906140c7565b613280565b60405161035d9190614aae565b60405180910390f35b82600060028260405161037991906149ff565b9081526020016040518091039020600401805461039590615122565b9050116103d7576040517f08c379a00000000000000000000000000000000000000000000000000000000081526004016103ce90614c93565b60405180910390fd5b8383806040516020016103ea91906149ff565b6040516020818303038152906040528051906020012060028360405161041091906149ff565b90815260200160405180910390206002016040516020016104319190614a16565b6040516020818303038152906040528051906020012014610487576040517f08c379a000000000000000000000000000000000000000000000000000000000815260040161047e90614bd3565b60405180910390fd5b6000600860008681526020019081526020016000206000015414156104e1576040517f08c379a00000000000000000000000000000000000000000000000000000000081526004016104d890614b53565b60405180910390fd5b600060028111156104f5576104f46151fd565b5b6008600086815260200190815260200160002060050160009054906101000a900460ff16600281111561052b5761052a6151fd565b5b1461056b576040517f08c379a000000000000000000000000000000000000000000000000000000000815260040161056290614cd3565b60405180910390fd5b60016008600086815260200190815260200160002060050160006101000a81548160ff021916908360028111156105a5576105a46151fd565b5b02179055507fa69b75b3a23ec2b590560923a5cb80fd65264cae6be71b9d37e4417a2d625e04846040516105d99190614d35565b60405180910390a1505050505050565b60006002856040516105fb91906149ff565b9081526020016040518091039020600401805461061790615122565b905014610659576040517f08c379a000000000000000000000000000000000000000000000000000000000815260040161065090614c13565b60405180910390fd5b6040518060e001604052808581526020018481526020018381526020018281526020018381526020018281526020014281525060028560405161069c91906149ff565b908152602001604051809103902060008201518160000190805190602001906106c692919061380e565b5060208201518160010190805190602001906106e392919061380e565b50604082015181600201908051906020019061070092919061380e565b50606082015181600301908051906020019061071d92919061380e565b50608082015181600401908051906020019061073a92919061380e565b5060a082015181600501908051906020019061075792919061380e565b5060c082015181600601559050506003849080600181540180825580915050600190039060005260206000200160009091909190915090805190602001906107a092919061380e565b507fb136dc79f4d1e00e846b672e3fef1c86bfa1771ab4f8f55628da5b15ff79c5768483836040516107d493929190614b07565b60405180910390a150505050565b6107ea613894565b600060086000848152602001908152602001600020600001541415610844576040517f08c379a000000000000000000000000000000000000000000000000000000000815260040161083b90614b53565b60405180910390fd5b60086000838152602001908152602001600020604051806101200160405290816000820154815260200160018201805461087d90615122565b80601f01602080910402602001604051908101604052809291908181526020018280546108a990615122565b80156108f65780601f106108cb576101008083540402835291602001916108f6565b820191906000526020600020905b8154815290600101906020018083116108d957829003601f168201915b5050505050815260200160028201805461090f90615122565b80601f016020809104026020016040519081016040528092919081815260200182805461093b90615122565b80156109885780601f1061095d57610100808354040283529160200191610988565b820191906000526020600020905b81548152906001019060200180831161096b57829003601f168201915b505050505081526020016003820160009054906101000a900460ff1660018111156109b6576109b56151fd565b5b60018111156109c8576109c76151fd565b5b81526020016003820160019054906101000a900460ff161515151581526020016004820180546109f790615122565b80601f0160208091040260200160405190810160405280929190818152602001828054610a2390615122565b8015610a705780601f10610a4557610100808354040283529160200191610a70565b820191906000526020600020905b815481529060010190602001808311610a5357829003601f168201915b505050505081526020016005820160009054906101000a900460ff166002811115610a9e57610a9d6151fd565b5b6002811115610ab057610aaf6151fd565b5b8152602001600682018054610ac490615122565b80601f0160208091040260200160405190810160405280929190818152602001828054610af090615122565b8015610b3d5780601f10610b1257610100808354040283529160200191610b3d565b820191906000526020600020905b815481529060010190602001808311610b2057829003601f168201915b50505050508152602001600782018054610b5690615122565b80601f0160208091040260200160405190810160405280929190818152602001828054610b8290615122565b8015610bcf5780601f10610ba457610100808354040283529160200191610bcf565b820191906000526020600020905b815481529060010190602001808311610bb257829003601f168201915b5050505050815250509050919050565b816000600282604051610bf291906149ff565b90815260200160405180910390206004018054610c0e90615122565b905011610c50576040517f08c379a0000000000000000000000000000000000000000000000000000000008152600401610c4790614c93565b60405180910390fd5b82826000600683604051610c6491906149ff565b908152602001604051809103902082604051610c8091906149ff565b90815260200160405180910390206000018054610c9c90615122565b905011610cde576040517f08c379a0000000000000000000000000000000000000000000000000000000008152600401610cd590614bf3565b60405180910390fd5b600685604051610cee91906149ff565b908152602001604051809103902084604051610d0a91906149ff565b908152602001604051809103902060008082016000610d299190613906565b600182016000610d399190613906565b600282016000610d499190613906565b50506000600786604051610d5d91906149ff565b9081526020016040518091039020905060005b8180549050811015610e955785604051602001610d8d91906149ff565b60405160208183030381529060405280519060200120828281548110610db657610db561528a565b5b90600052602060002001604051602001610dd09190614a16565b604051602081830303815290604052805190602001201415610e82578160018380549050610dfe9190614ff5565b81548110610e0f57610e0e61528a565b5b90600052602060002001828281548110610e2c57610e2b61528a565b5b90600052602060002001908054610e4290615122565b610e4d929190613946565b5081805480610e5f57610e5e61525b565b5b600190038181906000526020600020016000610e7b9190613906565b9055610e95565b8080610e8d90615185565b915050610d70565b507fb56cfb9d12b2c9d1fcae8c28c39e59213f2cd8909080e89a6c12fe888e8a49b48686604051610ec7929190614ad0565b60405180910390a1505050505050565b6060836000600282604051610eec91906149ff565b90815260200160405180910390206004018054610f0890615122565b905011610f4a576040517f08c379a0000000000000000000000000000000000000000000000000000000008152600401610f4190614c93565b60405180910390fd5b6000600486604051610f5c91906149ff565b908152602001604051809103902090506000818054905090506000851480610f845750600086145b15610fe757600067ffffffffffffffff811115610fa457610fa36152b9565b5b604051908082528060200260200182016040528015610fdd57816020015b610fca6139d3565b815260200190600190039081610fc25790505b5093505050611359565b600085600188610ff79190614ff5565b6110019190614f9b565b905081811061106957600067ffffffffffffffff811115611025576110246152b9565b5b60405190808252806020026020018201604052801561105e57816020015b61104b6139d3565b8152602001906001900390816110435790505b509450505050611359565b600086826110779190614f45565b905082811115611085578290505b600082826110939190614ff5565b67ffffffffffffffff8111156110ac576110ab6152b9565b5b6040519080825280602002602001820160405280156110e557816020015b6110d26139d3565b8152602001906001900390816110ca5790505b50905060008390505b8281101561134f578581815481106111095761110861528a565b5b906000526020600020906004020160405180608001604052908160008201805461113290615122565b80601f016020809104026020016040519081016040528092919081815260200182805461115e90615122565b80156111ab5780601f10611180576101008083540402835291602001916111ab565b820191906000526020600020905b81548152906001019060200180831161118e57829003601f168201915b505050505081526020016001820180546111c490615122565b80601f01602080910402602001604051908101604052809291908181526020018280546111f090615122565b801561123d5780601f106112125761010080835404028352916020019161123d565b820191906000526020600020905b81548152906001019060200180831161122057829003601f168201915b5050505050815260200160028201805461125690615122565b80601f016020809104026020016040519081016040528092919081815260200182805461128290615122565b80156112cf5780601f106112a4576101008083540402835291602001916112cf565b820191906000526020600020905b8154815290600101906020018083116112b257829003601f168201915b505050505081526020016003820160009054906101000a900460ff1660028111156112fd576112fc6151fd565b5b600281111561130f5761130e6151fd565b5b815250508285836113209190614ff5565b815181106113315761133061528a565b5b6020026020010181905250808061134790615185565b9150506110ee565b5080965050505050505b509392505050565b83600060028260405161137491906149ff565b9081526020016040518091039020600401805461139090615122565b9050116113d2576040517f08c379a00000000000000000000000000000000000000000000000000000000081526004016113c990614c93565b60405180910390fd5b8484806040516020016113e591906149ff565b6040516020818303038152906040528051906020012060028360405161140b91906149ff565b908152602001604051809103902060020160405160200161142c9190614a16565b6040516020818303038152906040528051906020012014611482576040517f08c379a000000000000000000000000000000000000000000000000000000000815260040161147990614bd3565b60405180910390fd5b60008551116114c6576040517f08c379a00000000000000000000000000000000000000000000000000000000081526004016114bd90614bb3565b60405180910390fd5b846002886040516114d791906149ff565b908152602001604051809103902060020190805190602001906114fb92919061380e565b508360028860405161150d91906149ff565b9081526020016040518091039020600301908051906020019061153192919061380e565b507f389b68744f66ab26b44498e30dc68a44d33e15738476faa4017fd247ce75269d8786604051611563929190614ad0565b60405180910390a150505050505050565b606083600060028260405161158991906149ff565b908152602001604051809103902060040180546115a590615122565b9050116115e7576040517f08c379a00000000000000000000000000000000000000000000000000000000081526004016115de90614c93565b60405180910390fd5b60006007866040516115f991906149ff565b9081526020016040518091039020905060008180549050905060008514806116215750600086145b1561168457600067ffffffffffffffff811115611641576116406152b9565b5b60405190808252806020026020018201604052801561167a57816020015b611667613a0d565b81526020019060019003908161165f5790505b50935050506119f0565b6000856001886116949190614ff5565b61169e9190614f9b565b905081811061170657600067ffffffffffffffff8111156116c2576116c16152b9565b5b6040519080825280602002602001820160405280156116fb57816020015b6116e8613a0d565b8152602001906001900390816116e05790505b5094505050506119f0565b600086826117149190614f45565b905082811115611722578290505b600082826117309190614ff5565b67ffffffffffffffff811115611749576117486152b9565b5b60405190808252806020026020018201604052801561178257816020015b61176f613a0d565b8152602001906001900390816117675790505b50905060008390505b828110156119e65760068b6040516117a391906149ff565b90815260200160405180910390208682815481106117c4576117c361528a565b5b906000526020600020016040516117db9190614a16565b908152602001604051809103902060405180606001604052908160008201805461180490615122565b80601f016020809104026020016040519081016040528092919081815260200182805461183090615122565b801561187d5780601f106118525761010080835404028352916020019161187d565b820191906000526020600020905b81548152906001019060200180831161186057829003601f168201915b5050505050815260200160018201805461189690615122565b80601f01602080910402602001604051908101604052809291908181526020018280546118c290615122565b801561190f5780601f106118e45761010080835404028352916020019161190f565b820191906000526020600020905b8154815290600101906020018083116118f257829003601f168201915b5050505050815260200160028201805461192890615122565b80601f016020809104026020016040519081016040528092919081815260200182805461195490615122565b80156119a15780601f10611976576101008083540402835291602001916119a1565b820191906000526020600020905b81548152906001019060200180831161198457829003601f168201915b5050505050815250508285836119b79190614ff5565b815181106119c8576119c761528a565b5b602002602001018190525080806119de90615185565b91505061178b565b5080965050505050505b509392505050565b826000600282604051611a0b91906149ff565b90815260200160405180910390206004018054611a2790615122565b905011611a69576040517f08c379a0000000000000000000000000000000000000000000000000000000008152600401611a6090614c93565b60405180910390fd5b838380604051602001611a7c91906149ff565b60405160208183030381529060405280519060200120600283604051611aa291906149ff565b9081526020016040518091039020600201604051602001611ac39190614a16565b6040516020818303038152906040528051906020012014611b19576040517f08c379a0000000000000000000000000000000000000000000000000000000008152600401611b1090614bd3565b60405180910390fd5b6000600587604051611b2b91906149ff565b908152602001604051809103902085604051611b4791906149ff565b908152602001604051809103902054905060008111611b9b576040517f08c379a0000000000000000000000000000000000000000000000000000000008152600401611b9290614c33565b60405180910390fd5b6000600488604051611bad91906149ff565b9081526020016040518091039020600183611bc89190614ff5565b81548110611bd957611bd861528a565b5b9060005260206000209060040201905060006002811115611bfd57611bfc6151fd565b5b8160030160009054906101000a900460ff166002811115611c2157611c206151fd565b5b14611c61576040517f08c379a0000000000000000000000000000000000000000000000000000000008152600401611c5890614cb3565b60405180910390fd5b60028160030160006101000a81548160ff02191690836002811115611c8957611c886151fd565b5b02179055507f6d87f4bcf1f261a169789a6b27debc8cbb84c9d5b41c295246d0b63473ce5d678887604051611cbf929190614ad0565b60405180910390a15050505050505050565b606060008054906101000a900473ffffffffffffffffffffffffffffffffffffffff1673ffffffffffffffffffffffffffffffffffffffff163373ffffffffffffffffffffffffffffffffffffffff1614611d61576040517f08c379a0000000000000000000000000000000000000000000000000000000008152600401611d5890614c73565b60405180910390fd5b600060038054905090506000831480611d7a5750600084145b15611ddc57600067ffffffffffffffff811115611d9a57611d996152b9565b5b604051908082528060200260200182016040528015611dd357816020015b611dc0613a2e565b815260200190600190039081611db85790505b509150506122eb565b600083600186611dec9190614ff5565b611df69190614f9b565b9050818110611e5d57600067ffffffffffffffff811115611e1a57611e196152b9565b5b604051908082528060200260200182016040528015611e5357816020015b611e40613a2e565b815260200190600190039081611e385790505b50925050506122eb565b60008482611e6b9190614f45565b905082811115611e79578290505b60008282611e879190614ff5565b67ffffffffffffffff811115611ea057611e9f6152b9565b5b604051908082528060200260200182016040528015611ed957816020015b611ec6613a2e565b815260200190600190039081611ebe5790505b50905060008390505b828110156122e257600260038281548110611f0057611eff61528a565b5b90600052602060002001604051611f179190614a16565b90815260200160405180910390206040518060e0016040529081600082018054611f4090615122565b80601f0160208091040260200160405190810160405280929190818152602001828054611f6c90615122565b8015611fb95780601f10611f8e57610100808354040283529160200191611fb9565b820191906000526020600020905b815481529060010190602001808311611f9c57829003601f168201915b50505050508152602001600182018054611fd290615122565b80601f0160208091040260200160405190810160405280929190818152602001828054611ffe90615122565b801561204b5780601f106120205761010080835404028352916020019161204b565b820191906000526020600020905b81548152906001019060200180831161202e57829003601f168201915b5050505050815260200160028201805461206490615122565b80601f016020809104026020016040519081016040528092919081815260200182805461209090615122565b80156120dd5780601f106120b2576101008083540402835291602001916120dd565b820191906000526020600020905b8154815290600101906020018083116120c057829003601f168201915b505050505081526020016003820180546120f690615122565b80601f016020809104026020016040519081016040528092919081815260200182805461212290615122565b801561216f5780601f106121445761010080835404028352916020019161216f565b820191906000526020600020905b81548152906001019060200180831161215257829003601f168201915b5050505050815260200160048201805461218890615122565b80601f01602080910402602001604051908101604052809291908181526020018280546121b490615122565b80156122015780601f106121d657610100808354040283529160200191612201565b820191906000526020600020905b8154815290600101906020018083116121e457829003601f168201915b5050505050815260200160058201805461221a90615122565b80601f016020809104026020016040519081016040528092919081815260200182805461224690615122565b80156122935780601f1061226857610100808354040283529160200191612293565b820191906000526020600020905b81548152906001019060200180831161227657829003601f168201915b505050505081526020016006820154815250508285836122b39190614ff5565b815181106122c4576122c361528a565b5b602002602001018190525080806122da90615185565b915050611ee2565b50809450505050505b92915050565b82600060028260405161230491906149ff565b9081526020016040518091039020600401805461232090615122565b905011612362576040517f08c379a000000000000000000000000000000000000000000000000000000000815260040161235990614c93565b60405180910390fd5b83838060405160200161237591906149ff565b6040516020818303038152906040528051906020012060028360405161239b91906149ff565b90815260200160405180910390206002016040516020016123bc9190614a16565b6040516020818303038152906040528051906020012014612412576040517f08c379a000000000000000000000000000000000000000000000000000000000815260040161240990614bd3565b60405180910390fd5b600060058760405161242491906149ff565b90815260200160405180910390208560405161244091906149ff565b908152602001604051809103902054905060008111612494576040517f08c379a000000000000000000000000000000000000000000000000000000000815260040161248b90614c33565b60405180910390fd5b60006004886040516124a691906149ff565b90815260200160405180910390206001836124c19190614ff5565b815481106124d2576124d161528a565b5b90600052602060002090600402019050600060028111156124f6576124f56151fd565b5b8160030160009054906101000a900460ff16600281111561251a576125196151fd565b5b1461255a576040517f08c379a000000000000000000000000000000000000000000000000000000000815260040161255190614cb3565b60405180910390fd5b60018160030160006101000a81548160ff02191690836002811115612582576125816151fd565b5b021790555060405180606001604052808781526020018260010180546125a790615122565b80601f01602080910402602001604051908101604052809291908181526020018280546125d390615122565b80156126205780601f106125f557610100808354040283529160200191612620565b820191906000526020600020905b81548152906001019060200180831161260357829003601f168201915b5050505050815260200182600201805461263990615122565b80601f016020809104026020016040519081016040528092919081815260200182805461266590615122565b80156126b25780601f10612687576101008083540402835291602001916126b2565b820191906000526020600020905b81548152906001019060200180831161269557829003601f168201915b50505050508152506006896040516126ca91906149ff565b9081526020016040518091039020876040516126e691906149ff565b9081526020016040518091039020600082015181600001908051906020019061271092919061380e565b50602082015181600101908051906020019061272d92919061380e565b50604082015181600201908051906020019061274a92919061380e565b5090505060078860405161275e91906149ff565b9081526020016040518091039020869080600181540180825580915050600190039060005260206000200160009091909190915090805190602001906127a592919061380e565b507fc7d7b311833990fab5a59fddeac60968889c984c7876f85638fc6f47bdbdf0b988876040516127d7929190614ad0565b60405180910390a15050505050505050565b8360006002826040516127fc91906149ff565b9081526020016040518091039020600401805461281890615122565b90501161285a576040517f08c379a000000000000000000000000000000000000000000000000000000000815260040161285190614c93565b60405180910390fd5b600060068660405161286c91906149ff565b90815260200160405180910390208560405161288891906149ff565b908152602001604051809103902060000180546128a490615122565b9050146128e6576040517f08c379a00000000000000000000000000000000000000000000000000000000081526004016128dd90614cf3565b60405180910390fd5b60006005866040516128f891906149ff565b90815260200160405180910390208560405161291491906149ff565b90815260200160405180910390205414612963576040517f08c379a000000000000000000000000000000000000000000000000000000000815260040161295a90614b93565b60405180910390fd5b6000604051806080016040528086815260200185815260200184815260200160006002811115612996576129956151fd565b5b81525090506004866040516129ab91906149ff565b908152602001604051809103902081908060018154018082558091505060019003906000526020600020906004020160009091909190915060008201518160000190805190602001906129ff92919061380e565b506020820151816001019080519060200190612a1c92919061380e565b506040820151816002019080519060200190612a3992919061380e565b5060608201518160030160006101000a81548160ff02191690836002811115612a6557612a646151fd565b5b02179055505050600486604051612a7c91906149ff565b908152602001604051809103902080549050600587604051612a9e91906149ff565b908152602001604051809103902086604051612aba91906149ff565b9081526020016040518091039020819055507f7b8c7af65525383b0da75bb46a6753bfd5010a2627dd1fc197e2ed227e7143068686604051612afd929190614ad0565b60405180910390a1505050505050565b6000600860008781526020019081526020016000209050600081600001541415612b6c576040517f08c379a0000000000000000000000000000000000000000000000000000000008152600401612b6390614b53565b60405180910390fd5b84604051602001612b7d91906149ff565b6040516020818303038152906040528051906020012081600601604051602001612ba79190614a16565b6040516020818303038152906040528051906020012014612bfd576040517f08c379a0000000000000000000000000000000000000000000000000000000008152600401612bf490614c53565b60405180910390fd5b83816001019080519060200190612c1592919061380e565b5082816002019080519060200190612c2e92919061380e565b5081816004019080519060200190612c4792919061380e565b5060008160050160006101000a81548160ff02191690836002811115612c7057612c6f6151fd565b5b021790555060008160030160016101000a81548160ff0219169083151502179055507fdf4403a2bf96bdbb824bdda255c198a05c2bd6e94289c06dd6d36be78f657b3c86604051612cc19190614d35565b60405180910390a1505050505050565b606060008054906101000a900473ffffffffffffffffffffffffffffffffffffffff1673ffffffffffffffffffffffffffffffffffffffff163373ffffffffffffffffffffffffffffffffffffffff1614612d61576040517f08c379a0000000000000000000000000000000000000000000000000000000008152600401612d5890614c73565b60405180910390fd5b612d6c848484611574565b90509392505050565b856000600282604051612d8891906149ff565b90815260200160405180910390206004018054612da490615122565b905011612de6576040517f08c379a0000000000000000000000000000000000000000000000000000000008152600401612ddd90614c93565b60405180910390fd5b86866000600683604051612dfa91906149ff565b908152602001604051809103902082604051612e1691906149ff565b90815260200160405180910390206000018054612e3290615122565b905011612e74576040517f08c379a0000000000000000000000000000000000000000000000000000000008152600401612e6b90614bf3565b60405180910390fd5b600060016000815480929190612e8990615185565b919050559050604051806101200160405280828152602001898152602001888152602001876001811115612ec057612ebf6151fd565b5b815260200160001515815260200186815260200160006002811115612ee857612ee76151fd565b5b81526020018a81526020018b81525060086000838152602001908152602001600020600082015181600001556020820151816001019080519060200190612f3092919061380e565b506040820151816002019080519060200190612f4d92919061380e565b5060608201518160030160006101000a81548160ff02191690836001811115612f7957612f786151fd565b5b021790555060808201518160030160016101000a81548160ff02191690831515021790555060a0820151816004019080519060200190612fba92919061380e565b5060c08201518160050160006101000a81548160ff02191690836002811115612fe657612fe56151fd565b5b021790555060e082015181600601908051906020019061300792919061380e565b5061010082015181600701908051906020019061302592919061380e565b5090505060098190806001815401808255809150506001900390600052602060002001600090919091909150557f2bc22403ccd085646fd0acc393542b3ca6d3f180f4fde70629d5087364decbb5818b8b60405161308593929190614d79565b60405180910390a150505050505050505050565b60006008600085815260200190815260200160002090506000816000015414156130f8576040517f08c379a00000000000000000000000000000000000000000000000000000000081526004016130ef90614b53565b60405180910390fd5b8260405160200161310991906149ff565b60405160208183030381529060405280519060200120816006016040516020016131339190614a16565b6040516020818303038152906040528051906020012014613189576040517f08c379a000000000000000000000000000000000000000000000000000000000815260040161318090614c53565b60405180910390fd5b6001600281111561319d5761319c6151fd565b5b8160050160009054906101000a900460ff1660028111156131c1576131c06151fd565b5b14613201576040517f08c379a00000000000000000000000000000000000000000000000000000000081526004016131f890614b73565b60405180910390fd5b818160030160016101000a81548160ff0219169083151502179055507fa5939aaf7adc8c118931b456a0019d9027242a45cb2b1f4aec714e0ce5d8ab94848360405161324e929190614d50565b60405180910390a150505050565b60008054906101000a900473ffffffffffffffffffffffffffffffffffffffff1681565b606060006009805490509050600083148061329b5750600084145b156132fd57600067ffffffffffffffff8111156132bb576132ba6152b9565b5b6040519080825280602002602001820160405280156132f457816020015b6132e1613894565b8152602001906001900390816132d95790505b50915050613808565b60008360018661330d9190614ff5565b6133179190614f9b565b905081811061337e57600067ffffffffffffffff81111561333b5761333a6152b9565b5b60405190808252806020026020018201604052801561337457816020015b613361613894565b8152602001906001900390816133595790505b5092505050613808565b6000848261338c9190614f45565b90508281111561339a578290505b600082826133a89190614ff5565b67ffffffffffffffff8111156133c1576133c06152b9565b5b6040519080825280602002602001820160405280156133fa57816020015b6133e7613894565b8152602001906001900390816133df5790505b50905060008390505b828110156137ff576000600982815481106134215761342061528a565b5b9060005260206000200154905060086000828152602001908152602001600020604051806101200160405290816000820154815260200160018201805461346790615122565b80601f016020809104026020016040519081016040528092919081815260200182805461349390615122565b80156134e05780601f106134b5576101008083540402835291602001916134e0565b820191906000526020600020905b8154815290600101906020018083116134c357829003601f168201915b505050505081526020016002820180546134f990615122565b80601f016020809104026020016040519081016040528092919081815260200182805461352590615122565b80156135725780601f1061354757610100808354040283529160200191613572565b820191906000526020600020905b81548152906001019060200180831161355557829003601f168201915b505050505081526020016003820160009054906101000a900460ff1660018111156135a05761359f6151fd565b5b60018111156135b2576135b16151fd565b5b81526020016003820160019054906101000a900460ff161515151581526020016004820180546135e190615122565b80601f016020809104026020016040519081016040528092919081815260200182805461360d90615122565b801561365a5780601f1061362f5761010080835404028352916020019161365a565b820191906000526020600020905b81548152906001019060200180831161363d57829003601f168201915b505050505081526020016005820160009054906101000a900460ff166002811115613688576136876151fd565b5b600281111561369a576136996151fd565b5b81526020016006820180546136ae90615122565b80601f01602080910402602001604051908101604052809291908181526020018280546136da90615122565b80156137275780601f106136fc57610100808354040283529160200191613727565b820191906000526020600020905b81548152906001019060200180831161370a57829003601f168201915b5050505050815260200160078201805461374090615122565b80601f016020809104026020016040519081016040528092919081815260200182805461376c90615122565b80156137b95780601f1061378e576101008083540402835291602001916137b9565b820191906000526020600020905b81548152906001019060200180831161379c57829003601f168201915b5050505050815250508386846137cf9190614ff5565b815181106137e0576137df61528a565b5b60200260200101819052505080806137f790615185565b915050613403565b50809450505050505b92915050565b82805461381a90615122565b90600052602060002090601f01602090048101928261383c5760008555613883565b82601f1061385557805160ff1916838001178555613883565b82800160010185558215613883579182015b82811115613882578251825591602001919060010190613867565b5b5090506138909190613a6b565b5090565b604051806101200160405280600081526020016060815260200160608152602001600060018111156138c9576138c86151fd565b5b815260200160001515815260200160608152602001600060028111156138f2576138f16151fd565b5b815260200160608152602001606081525090565b50805461391290615122565b6000825580601f106139245750613943565b601f0160209004906000526020600020908101906139429190613a6b565b5b50565b82805461395290615122565b90600052602060002090601f01602090048101928261397457600085556139c2565b82601f1061398557805485556139c2565b828001600101855582156139c257600052602060002091601f016020900482015b828111156139c15782548255916001019190600101906139a6565b5b5090506139cf9190613a6b565b5090565b604051806080016040528060608152602001606081526020016060815260200160006002811115613a0757613a066151fd565b5b81525090565b60405180606001604052806060815260200160608152602001606081525090565b6040518060e00160405280606081526020016060815260200160608152602001606081526020016060815260200160608152602001600081525090565b5b80821115613a84576000816000905550600101613a6c565b5090565b6000613a9b613a9684614de3565b614dbe565b905082815260208101848484011115613ab757613ab66152ed565b5b613ac28482856150e0565b509392505050565b600081359050613ad9816155d3565b92915050565b600081359050613aee816155ea565b92915050565b600082601f830112613b0957613b086152e8565b5b8135613b19848260208601613a88565b91505092915050565b600081359050613b31816155fa565b92915050565b60008060408385031215613b4e57613b4d6152f7565b5b600083013567ffffffffffffffff811115613b6c57613b6b6152f2565b5b613b7885828601613af4565b925050602083013567ffffffffffffffff811115613b9957613b986152f2565b5b613ba585828601613af4565b9150509250929050565b600080600060608486031215613bc857613bc76152f7565b5b600084013567ffffffffffffffff811115613be657613be56152f2565b5b613bf286828701613af4565b935050602084013567ffffffffffffffff811115613c1357613c126152f2565b5b613c1f86828701613af4565b925050604084013567ffffffffffffffff811115613c4057613c3f6152f2565b5b613c4c86828701613af4565b9150509250925092565b60008060008060808587031215613c7057613c6f6152f7565b5b600085013567ffffffffffffffff811115613c8e57613c8d6152f2565b5b613c9a87828801613af4565b945050602085013567ffffffffffffffff811115613cbb57613cba6152f2565b5b613cc787828801613af4565b935050604085013567ffffffffffffffff811115613ce857613ce76152f2565b5b613cf487828801613af4565b925050606085013567ffffffffffffffff811115613d1557613d146152f2565b5b613d2187828801613af4565b91505092959194509250565b60008060008060008060c08789031215613d4a57613d496152f7565b5b600087013567ffffffffffffffff811115613d6857613d676152f2565b5b613d7489828a01613af4565b965050602087013567ffffffffffffffff811115613d9557613d946152f2565b5b613da189828a01613af4565b955050604087013567ffffffffffffffff811115613dc257613dc16152f2565b5b613dce89828a01613af4565b945050606087013567ffffffffffffffff811115613def57613dee6152f2565b5b613dfb89828a01613af4565b9350506080613e0c89828a01613adf565b92505060a087013567ffffffffffffffff811115613e2d57613e2c6152f2565b5b613e3989828a01613af4565b9150509295509295509295565b600080600060608486031215613e5f57613e5e6152f7565b5b600084013567ffffffffffffffff811115613e7d57613e7c6152f2565b5b613e8986828701613af4565b935050602084013567ffffffffffffffff811115613eaa57613ea96152f2565b5b613eb686828701613af4565b9250506040613ec786828701613b22565b9150509250925092565b600080600060608486031215613eea57613ee96152f7565b5b600084013567ffffffffffffffff811115613f0857613f076152f2565b5b613f1486828701613af4565b9350506020613f2586828701613b22565b9250506040613f3686828701613b22565b9150509250925092565b600060208284031215613f5657613f556152f7565b5b6000613f6484828501613b22565b91505092915050565b600080600060608486031215613f8657613f856152f7565b5b6000613f9486828701613b22565b935050602084013567ffffffffffffffff811115613fb557613fb46152f2565b5b613fc186828701613af4565b9250506040613fd286828701613aca565b9150509250925092565b600080600080600060a08688031215613ff857613ff76152f7565b5b600061400688828901613b22565b955050602086013567ffffffffffffffff811115614027576140266152f2565b5b61403388828901613af4565b945050604086013567ffffffffffffffff811115614054576140536152f2565b5b61406088828901613af4565b935050606086013567ffffffffffffffff811115614081576140806152f2565b5b61408d88828901613af4565b925050608086013567ffffffffffffffff8111156140ae576140ad6152f2565b5b6140ba88828901613af4565b9150509295509295909350565b600080604083850312156140de576140dd6152f7565b5b60006140ec85828601613b22565b92505060206140fd85828601613b22565b9150509250929050565b60006141138383614691565b905092915050565b60006141278383614702565b905092915050565b600061413b83836147c1565b905092915050565b600061414f838361481f565b905092915050565b61416081615029565b82525050565b600061417182614e69565b61417b8185614ed4565b93508360208202850161418d85614e14565b8060005b858110156141c957848403895281516141aa8582614107565b94506141b583614ea0565b925060208a01995050600181019050614191565b50829750879550505050505092915050565b60006141e682614e74565b6141f08185614ee5565b93508360208202850161420285614e24565b8060005b8581101561423e578484038952815161421f858261411b565b945061422a83614ead565b925060208a01995050600181019050614206565b50829750879550505050505092915050565b600061425b82614e7f565b6142658185614ef6565b93508360208202850161427785614e34565b8060005b858110156142b35784840389528151614294858261412f565b945061429f83614eba565b925060208a0199505060018101905061427b565b50829750879550505050505092915050565b60006142d082614e8a565b6142da8185614f07565b9350836020820285016142ec85614e44565b8060005b8581101561432857848403895281516143098582614143565b945061431483614ec7565b925060208a019950506001810190506142f0565b50829750879550505050505092915050565b6143438161503b565b82525050565b6143528161503b565b82525050565b614361816150aa565b82525050565b614370816150bc565b82525050565b61437f816150ce565b82525050565b600061439082614e95565b61439a8185614f18565b93506143aa8185602086016150ef565b6143b3816152fc565b840191505092915050565b60006143c982614e95565b6143d38185614f29565b93506143e38185602086016150ef565b6143ec816152fc565b840191505092915050565b600061440282614e95565b61440c8185614f3a565b935061441c8185602086016150ef565b80840191505092915050565b6000815461443581615122565b61443f8186614f3a565b9450600182166000811461445a576001811461446b5761449e565b60ff1983168652818601935061449e565b61447485614e54565b60005b8381101561449657815481890152600182019150602081019050614477565b838801955050505b50505092915050565b60006144b4601683614f29565b91506144bf8261530d565b602082019050919050565b60006144d7602b83614f29565b91506144e282615336565b604082019050919050565b60006144fa601d83614f29565b915061450582615385565b602082019050919050565b600061451d601d83614f29565b9150614528826153ae565b602082019050919050565b6000614540601e83614f29565b915061454b826153d7565b602082019050919050565b6000614563602583614f29565b915061456e82615400565b604082019050919050565b6000614586601883614f29565b91506145918261544f565b602082019050919050565b60006145a9601a83614f29565b91506145b482615478565b602082019050919050565b60006145cc601183614f29565b91506145d7826154a1565b602082019050919050565b60006145ef601783614f29565b91506145fa826154ca565b602082019050919050565b6000614612601583614f29565b915061461d826154f3565b602082019050919050565b6000614635601783614f29565b91506146408261551c565b602082019050919050565b6000614658601c83614f29565b915061466382615545565b602082019050919050565b600061467b601083614f29565b91506146868261556e565b602082019050919050565b600060808301600083015184820360008601526146ae8282614385565b915050602083015184820360208601526146c88282614385565b915050604083015184820360408601526146e28282614385565b91505060608301516146f76060860182614358565b508091505092915050565b600060e083016000830151848203600086015261471f8282614385565b915050602083015184820360208601526147398282614385565b915050604083015184820360408601526147538282614385565b9150506060830151848203606086015261476d8282614385565b915050608083015184820360808601526147878282614385565b91505060a083015184820360a08601526147a18282614385565b91505060c08301516147b660c08601826149e1565b508091505092915050565b600060608301600083015184820360008601526147de8282614385565b915050602083015184820360208601526147f88282614385565b915050604083015184820360408601526148128282614385565b9150508091505092915050565b60006101208301600083015161483860008601826149e1565b50602083015184820360208601526148508282614385565b9150506040830151848203604086015261486a8282614385565b915050606083015161487f6060860182614376565b506080830151614892608086018261433a565b5060a083015184820360a08601526148aa8282614385565b91505060c08301516148bf60c0860182614367565b5060e083015184820360e08601526148d78282614385565b9150506101008301518482036101008601526148f38282614385565b9150508091505092915050565b60006101208301600083015161491960008601826149e1565b50602083015184820360208601526149318282614385565b9150506040830151848203604086015261494b8282614385565b91505060608301516149606060860182614376565b506080830151614973608086018261433a565b5060a083015184820360a086015261498b8282614385565b91505060c08301516149a060c0860182614367565b5060e083015184820360e08601526149b88282614385565b9150506101008301518482036101008601526149d48282614385565b9150508091505092915050565b6149ea816150a0565b82525050565b6149f9816150a0565b82525050565b6000614a0b82846143f7565b915081905092915050565b6000614a228284614428565b915081905092915050565b6000602082019050614a426000830184614157565b92915050565b60006020820190508181036000830152614a628184614166565b905092915050565b60006020820190508181036000830152614a8481846141db565b905092915050565b60006020820190508181036000830152614aa68184614250565b905092915050565b60006020820190508181036000830152614ac881846142c5565b905092915050565b60006040820190508181036000830152614aea81856143be565b90508181036020830152614afe81846143be565b90509392505050565b60006060820190508181036000830152614b2181866143be565b90508181036020830152614b3581856143be565b90508181036040830152614b4981846143be565b9050949350505050565b60006020820190508181036000830152614b6c816144a7565b9050919050565b60006020820190508181036000830152614b8c816144ca565b9050919050565b60006020820190508181036000830152614bac816144ed565b9050919050565b60006020820190508181036000830152614bcc81614510565b9050919050565b60006020820190508181036000830152614bec81614533565b9050919050565b60006020820190508181036000830152614c0c81614556565b9050919050565b60006020820190508181036000830152614c2c81614579565b9050919050565b60006020820190508181036000830152614c4c8161459c565b9050919050565b60006020820190508181036000830152614c6c816145bf565b9050919050565b60006020820190508181036000830152614c8c816145e2565b9050919050565b60006020820190508181036000830152614cac81614605565b9050919050565b60006020820190508181036000830152614ccc81614628565b9050919050565b60006020820190508181036000830152614cec8161464b565b9050919050565b60006020820190508181036000830152614d0c8161466e565b9050919050565b60006020820190508181036000830152614d2d8184614900565b905092915050565b6000602082019050614d4a60008301846149f0565b92915050565b6000604082019050614d6560008301856149f0565b614d726020830184614349565b9392505050565b6000606082019050614d8e60008301866149f0565b8181036020830152614da081856143be565b90508181036040830152614db481846143be565b9050949350505050565b6000614dc8614dd9565b9050614dd48282615154565b919050565b6000604051905090565b600067ffffffffffffffff821115614dfe57614dfd6152b9565b5b614e07826152fc565b9050602081019050919050565b6000819050602082019050919050565b6000819050602082019050919050565b6000819050602082019050919050565b6000819050602082019050919050565b60008190508160005260206000209050919050565b600081519050919050565b600081519050919050565b600081519050919050565b600081519050919050565b600081519050919050565b6000602082019050919050565b6000602082019050919050565b6000602082019050919050565b6000602082019050919050565b600082825260208201905092915050565b600082825260208201905092915050565b600082825260208201905092915050565b600082825260208201905092915050565b600082825260208201905092915050565b600082825260208201905092915050565b600081905092915050565b6000614f50826150a0565b9150614f5b836150a0565b9250827fffffffffffffffffffffffffffffffffffffffffffffffffffffffffffffffff03821115614f9057614f8f6151ce565b5b828201905092915050565b6000614fa6826150a0565b9150614fb1836150a0565b9250817fffffffffffffffffffffffffffffffffffffffffffffffffffffffffffffffff0483118215151615614fea57614fe96151ce565b5b828202905092915050565b6000615000826150a0565b915061500b836150a0565b92508282101561501e5761501d6151ce565b5b828203905092915050565b600061503482615080565b9050919050565b60008115159050919050565b600081905061505582615597565b919050565b6000819050615068826155ab565b919050565b600081905061507b826155bf565b919050565b600073ffffffffffffffffffffffffffffffffffffffff82169050919050565b6000819050919050565b60006150b582615047565b9050919050565b60006150c78261505a565b9050919050565b60006150d98261506d565b9050919050565b82818337600083830152505050565b60005b8381101561510d5780820151818401526020810190506150f2565b8381111561511c576000848401525b50505050565b6000600282049050600182168061513a57607f821691505b6020821081141561514e5761514d61522c565b5b50919050565b61515d826152fc565b810181811067ffffffffffffffff8211171561517c5761517b6152b9565b5b80604052505050565b6000615190826150a0565b91507fffffffffffffffffffffffffffffffffffffffffffffffffffffffffffffffff8214156151c3576151c26151ce565b5b600182019050919050565b7f4e487b7100000000000000000000000000000000000000000000000000000000600052601160045260246000fd5b7f4e487b7100000000000000000000000000000000000000000000000000000000600052602160045260246000fd5b7f4e487b7100000000000000000000000000000000000000000000000000000000600052602260045260246000fd5b7f4e487b7100000000000000000000000000000000000000000000000000000000600052603160045260246000fd5b7f4e487b7100000000000000000000000000000000000000000000000000000000600052603260045260246000fd5b7f4e487b7100000000000000000000000000000000000000000000000000000000600052604160045260246000fd5b600080fd5b600080fd5b600080fd5b600080fd5b6000601f19601f8301169050919050565b7f50726f6475637420646f6573206e6f7420657869737400000000000000000000600082015250565b7f50726f64756374206d75737420626520617070726f76656420746f206265207360008201527f6574206f6e207368656c66000000000000000000000000000000000000000000602082015250565b7f4170706c69636174696f6e20616c7265616479207375626d6974746564000000600082015250565b7f4e6577206f776e6572204449442063616e6e6f7420626520656d707479000000600082015250565b7f43616c6c6572206973206e6f742074686520636972636c65206f776e65720000600082015250565b7f43616c6c6572206973206e6f742061206d656d626572206f662074686973206360008201527f6972636c65000000000000000000000000000000000000000000000000000000602082015250565b7f436972636c6520494420616c7265616479206578697374730000000000000000600082015250565b7f4170706c69636174696f6e20646f6573206e6f74206578697374000000000000600082015250565b7f4e6f742070726f64756374206f776e6572000000000000000000000000000000600082015250565b7f43616c6c6572206973206e6f74207468652061646d696e000000000000000000600082015250565b7f436972636c6520646f6573206e6f742065786973740000000000000000000000600082015250565b7f4170706c69636174696f6e206e6f742070656e64696e67000000000000000000600082015250565b7f50726f64756374206e6f742070656e64696e6720617070726f76616c00000000600082015250565b7f416c72656164792061206d656d62657200000000000000000000000000000000600082015250565b600381106155a8576155a76151fd565b5b50565b600381106155bc576155bb6151fd565b5b50565b600281106155d0576155cf6151fd565b5b50565b6155dc8161503b565b81146155e757600080fd5b50565b600281106155f757600080fd5b50565b615603816150a0565b811461560e57600080fd5b5056fea26469706673582212206101b76eb52c16b1ef176a77c965f8dc2f43baf3715058a6523e35855d4f4ae264736f6c63430008060033",
  "linkReferences": {},
  "deployedLinkReferences": {}
}